{
    "_format": "hh-sol-artifact-1",
    "contractName": "TinFitToken",
    "sourceName": "contracts/TinFitToken.sol",
    "abi": [
        {
            "inputs": [
                {
                    "internalType": "uint256",
                    "name": "supply",
                    "type": "uint256"
                },
                {
                    "internalType": "address",
                    "name": "liquidityPool",
                    "type": "address"
                },
                {
                    "internalType": "address",
                    "name": "distributionPool",
                    "type": "address"
                }
            ],
            "stateMutability": "nonpayable",
            "type": "constructor"
        },
        {
            "anonymous": false,
            "inputs": [
                {
                    "indexed": true,
                    "internalType": "address",
                    "name": "owner",
                    "type": "address"
                },
                {
                    "indexed": true,
                    "internalType": "address",
                    "name": "spender",
                    "type": "address"
                },
                {
                    "indexed": false,
                    "internalType": "uint256",
                    "name": "value",
                    "type": "uint256"
                }
            ],
            "name": "Approval",
            "type": "event"
        },
        {
            "anonymous": false,
            "inputs": [
                {
                    "indexed": true,
                    "internalType": "address",
                    "name": "previousOwner",
                    "type": "address"
                },
                {
                    "indexed": true,
                    "internalType": "address",
                    "name": "newOwner",
                    "type": "address"
                }
            ],
            "name": "OwnershipTransferred",
            "type": "event"
        },
        {
            "anonymous": false,
            "inputs": [
                {
                    "indexed": true,
                    "internalType": "address",
                    "name": "from",
                    "type": "address"
                },
                {
                    "indexed": true,
                    "internalType": "address",
                    "name": "to",
                    "type": "address"
                },
                {
                    "indexed": false,
                    "internalType": "uint256",
                    "name": "value",
                    "type": "uint256"
                }
            ],
            "name": "Transfer",
            "type": "event"
        },
        {
            "inputs": [
                {
                    "internalType": "address",
                    "name": "user",
                    "type": "address"
                }
            ],
            "name": "addToReceiverWhitelist",
            "outputs": [],
            "stateMutability": "nonpayable",
            "type": "function"
        },
        {
            "inputs": [
                {
                    "internalType": "address",
                    "name": "user",
                    "type": "address"
                }
            ],
            "name": "addToSenderWhitelist",
            "outputs": [],
            "stateMutability": "nonpayable",
            "type": "function"
        },
        {
            "inputs": [
                {
                    "internalType": "address",
                    "name": "owner",
                    "type": "address"
                },
                {
                    "internalType": "address",
                    "name": "spender",
                    "type": "address"
                }
            ],
            "name": "allowance",
            "outputs": [
                {
                    "internalType": "uint256",
                    "name": "",
                    "type": "uint256"
                }
            ],
            "stateMutability": "view",
            "type": "function"
        },
        {
            "inputs": [
                {
                    "internalType": "address",
                    "name": "spender",
                    "type": "address"
                },
                {
                    "internalType": "uint256",
                    "name": "amount",
                    "type": "uint256"
                }
            ],
            "name": "approve",
            "outputs": [
                {
                    "internalType": "bool",
                    "name": "",
                    "type": "bool"
                }
            ],
            "stateMutability": "nonpayable",
            "type": "function"
        },
        {
            "inputs": [
                {
                    "internalType": "address",
                    "name": "account",
                    "type": "address"
                }
            ],
            "name": "balanceOf",
            "outputs": [
                {
                    "internalType": "uint256",
                    "name": "",
                    "type": "uint256"
                }
            ],
            "stateMutability": "view",
            "type": "function"
        },
        {
            "inputs": [],
            "name": "decimals",
            "outputs": [
                {
                    "internalType": "uint8",
                    "name": "",
                    "type": "uint8"
                }
            ],
            "stateMutability": "view",
            "type": "function"
        },
        {
            "inputs": [
                {
                    "internalType": "address",
                    "name": "spender",
                    "type": "address"
                },
                {
                    "internalType": "uint256",
                    "name": "subtractedValue",
                    "type": "uint256"
                }
            ],
            "name": "decreaseAllowance",
            "outputs": [
                {
                    "internalType": "bool",
                    "name": "",
                    "type": "bool"
                }
            ],
            "stateMutability": "nonpayable",
            "type": "function"
        },
        {
            "inputs": [],
            "name": "getOwner",
            "outputs": [
                {
                    "internalType": "address",
                    "name": "",
                    "type": "address"
                }
            ],
            "stateMutability": "view",
            "type": "function"
        },
        {
            "inputs": [
                {
                    "internalType": "address",
                    "name": "spender",
                    "type": "address"
                },
                {
                    "internalType": "uint256",
                    "name": "addedValue",
                    "type": "uint256"
                }
            ],
            "name": "increaseAllowance",
            "outputs": [
                {
                    "internalType": "bool",
                    "name": "",
                    "type": "bool"
                }
            ],
            "stateMutability": "nonpayable",
            "type": "function"
        },
        {
            "inputs": [
                {
                    "internalType": "address",
                    "name": "user",
                    "type": "address"
                }
            ],
            "name": "isReceiverWhitelisted",
            "outputs": [
                {
                    "internalType": "bool",
                    "name": "",
                    "type": "bool"
                }
            ],
            "stateMutability": "view",
            "type": "function"
        },
        {
            "inputs": [
                {
                    "internalType": "address",
                    "name": "user",
                    "type": "address"
                }
            ],
            "name": "isSenderWhitelisted",
            "outputs": [
                {
                    "internalType": "bool",
                    "name": "",
                    "type": "bool"
                }
            ],
            "stateMutability": "view",
            "type": "function"
        },
        {
            "inputs": [],
            "name": "name",
            "outputs": [
                {
                    "internalType": "string",
                    "name": "",
                    "type": "string"
                }
            ],
            "stateMutability": "view",
            "type": "function"
        },
        {
            "inputs": [],
            "name": "owner",
            "outputs": [
                {
                    "internalType": "address",
                    "name": "",
                    "type": "address"
                }
            ],
            "stateMutability": "view",
            "type": "function"
        },
        {
            "inputs": [
                {
                    "internalType": "uint256",
                    "name": "amount",
                    "type": "uint256"
                }
            ],
            "name": "ownerBurn",
            "outputs": [],
            "stateMutability": "nonpayable",
            "type": "function"
        },
        {
            "inputs": [
                {
                    "internalType": "address",
                    "name": "user",
                    "type": "address"
                }
            ],
            "name": "removeFromReceiverWhitelist",
            "outputs": [],
            "stateMutability": "nonpayable",
            "type": "function"
        },
        {
            "inputs": [
                {
                    "internalType": "address",
                    "name": "user",
                    "type": "address"
                }
            ],
            "name": "removeFromSenderWhitelist",
            "outputs": [],
            "stateMutability": "nonpayable",
            "type": "function"
        },
        {
            "inputs": [],
            "name": "renounceOwnership",
            "outputs": [],
            "stateMutability": "nonpayable",
            "type": "function"
        },
        {
            "inputs": [
                {
                    "internalType": "uint256",
                    "name": "value",
                    "type": "uint256"
                }
            ],
            "name": "setTaxMultiplicator",
            "outputs": [],
            "stateMutability": "nonpayable",
            "type": "function"
        },
        {
            "inputs": [],
            "name": "symbol",
            "outputs": [
                {
                    "internalType": "string",
                    "name": "",
                    "type": "string"
                }
            ],
            "stateMutability": "view",
            "type": "function"
        },
        {
            "inputs": [],
            "name": "totalSupply",
            "outputs": [
                {
                    "internalType": "uint256",
                    "name": "",
                    "type": "uint256"
                }
            ],
            "stateMutability": "view",
            "type": "function"
        },
        {
            "inputs": [
                {
                    "internalType": "address",
                    "name": "recipient",
                    "type": "address"
                },
                {
                    "internalType": "uint256",
                    "name": "amount",
                    "type": "uint256"
                }
            ],
            "name": "transfer",
            "outputs": [
                {
                    "internalType": "bool",
                    "name": "",
                    "type": "bool"
                }
            ],
            "stateMutability": "nonpayable",
            "type": "function"
        },
        {
            "inputs": [
                {
                    "internalType": "address",
                    "name": "sender",
                    "type": "address"
                },
                {
                    "internalType": "address",
                    "name": "recipient",
                    "type": "address"
                },
                {
                    "internalType": "uint256",
                    "name": "amount",
                    "type": "uint256"
                }
            ],
            "name": "transferFrom",
            "outputs": [
                {
                    "internalType": "bool",
                    "name": "",
                    "type": "bool"
                }
            ],
            "stateMutability": "nonpayable",
            "type": "function"
        },
        {
            "inputs": [
                {
                    "internalType": "address",
                    "name": "newOwner",
                    "type": "address"
                }
            ],
            "name": "transferOwnership",
            "outputs": [],
            "stateMutability": "nonpayable",
            "type": "function"
        }
    ],
    "bytecode": "0x60806040526064600a553480156200001657600080fd5b50604051620033c4380380620033c483398181016040528101906200003c919062000828565b6040518060400160405280600c81526020017f54696e46697420546f6b656e00000000000000000000000000000000000000008152506040518060400160405280600381526020017f5446540000000000000000000000000000000000000000000000000000000000815250601282828160039080519060200190620000c49291906200074a565b508060049080519060200190620000dd9291906200074a565b5050506000620000f2620003da60201b60201c565b905080600560006101000a81548173ffffffffffffffffffffffffffffffffffffffff021916908373ffffffffffffffffffffffffffffffffffffffff1602179055508073ffffffffffffffffffffffffffffffffffffffff16600073ffffffffffffffffffffffffffffffffffffffff167f8be0079c531659141344cd1fd0a4f28419497f9722a3daafe3b4186f6b6457e060405160405180910390a35080600560146101000a81548160ff021916908360ff160217905550505050620001d0620001c3620003e260201b60201c565b846200040c60201b60201c565b620001e0620003e260201b60201c565b600660006101000a81548173ffffffffffffffffffffffffffffffffffffffff021916908373ffffffffffffffffffffffffffffffffffffffff16021790555081600860006101000a81548173ffffffffffffffffffffffffffffffffffffffff021916908373ffffffffffffffffffffffffffffffffffffffff16021790555080600960006101000a81548173ffffffffffffffffffffffffffffffffffffffff021916908373ffffffffffffffffffffffffffffffffffffffff160217905550620002c2620002b6620003e260201b60201c565b6200057160201b60201c565b620002f5600860009054906101000a900473ffffffffffffffffffffffffffffffffffffffff166200057160201b60201c565b62000328600960009054906101000a900473ffffffffffffffffffffffffffffffffffffffff166200057160201b60201c565b620003486200033c620003e260201b60201c565b6200065b60201b60201c565b6200037b600860009054906101000a900473ffffffffffffffffffffffffffffffffffffffff166200065b60201b60201c565b620003ae600960009054906101000a900473ffffffffffffffffffffffffffffffffffffffff166200065b60201b60201c565b6064601984620003bf9190620009e4565b620003cb9190620009ac565b60078190555050505062000bcc565b600033905090565b6000600560009054906101000a900473ffffffffffffffffffffffffffffffffffffffff16905090565b600073ffffffffffffffffffffffffffffffffffffffff168273ffffffffffffffffffffffffffffffffffffffff1614156200047f576040517f08c379a00000000000000000000000000000000000000000000000000000000081526004016200047690620008ff565b60405180910390fd5b62000493600083836200074560201b60201c565b8060026000828254620004a791906200094f565b92505081905550806000808473ffffffffffffffffffffffffffffffffffffffff1673ffffffffffffffffffffffffffffffffffffffff1681526020019081526020016000206000828254620004fe91906200094f565b925050819055508173ffffffffffffffffffffffffffffffffffffffff16600073ffffffffffffffffffffffffffffffffffffffff167fddf252ad1be2c89b69c2b068fc378daa952ba7f163c4a11628f55a4df523b3ef8360405162000565919062000921565b60405180910390a35050565b62000581620003da60201b60201c565b73ffffffffffffffffffffffffffffffffffffffff16620005a7620003e260201b60201c565b73ffffffffffffffffffffffffffffffffffffffff161462000600576040517f08c379a0000000000000000000000000000000000000000000000000000000008152600401620005f790620008dd565b60405180910390fd5b6001600b60008373ffffffffffffffffffffffffffffffffffffffff1673ffffffffffffffffffffffffffffffffffffffff16815260200190815260200160002060006101000a81548160ff02191690831515021790555050565b6200066b620003da60201b60201c565b73ffffffffffffffffffffffffffffffffffffffff1662000691620003e260201b60201c565b73ffffffffffffffffffffffffffffffffffffffff1614620006ea576040517f08c379a0000000000000000000000000000000000000000000000000000000008152600401620006e190620008dd565b60405180910390fd5b6001600c60008373ffffffffffffffffffffffffffffffffffffffff1673ffffffffffffffffffffffffffffffffffffffff16815260200190815260200160002060006101000a81548160ff02191690831515021790555050565b505050565b828054620007589062000a83565b90600052602060002090601f0160209004810192826200077c5760008555620007c8565b82601f106200079757805160ff1916838001178555620007c8565b82800160010185558215620007c8579182015b82811115620007c7578251825591602001919060010190620007aa565b5b509050620007d79190620007db565b5090565b5b80821115620007f6576000816000905550600101620007dc565b5090565b6000815190506200080b8162000b98565b92915050565b600081519050620008228162000bb2565b92915050565b6000806000606084860312156200083e57600080fd5b60006200084e8682870162000811565b93505060206200086186828701620007fa565b92505060406200087486828701620007fa565b9150509250925092565b60006200088d6020836200093e565b91506200089a8262000b46565b602082019050919050565b6000620008b4601f836200093e565b9150620008c18262000b6f565b602082019050919050565b620008d78162000a79565b82525050565b60006020820190508181036000830152620008f8816200087e565b9050919050565b600060208201905081810360008301526200091a81620008a5565b9050919050565b6000602082019050620009386000830184620008cc565b92915050565b600082825260208201905092915050565b60006200095c8262000a79565b9150620009698362000a79565b9250827fffffffffffffffffffffffffffffffffffffffffffffffffffffffffffffffff03821115620009a157620009a062000ab9565b5b828201905092915050565b6000620009b98262000a79565b9150620009c68362000a79565b925082620009d957620009d862000ae8565b5b828204905092915050565b6000620009f18262000a79565b9150620009fe8362000a79565b9250817fffffffffffffffffffffffffffffffffffffffffffffffffffffffffffffffff048311821515161562000a3a5762000a3962000ab9565b5b828202905092915050565b600062000a528262000a59565b9050919050565b600073ffffffffffffffffffffffffffffffffffffffff82169050919050565b6000819050919050565b6000600282049050600182168062000a9c57607f821691505b6020821081141562000ab35762000ab262000b17565b5b50919050565b7f4e487b7100000000000000000000000000000000000000000000000000000000600052601160045260246000fd5b7f4e487b7100000000000000000000000000000000000000000000000000000000600052601260045260246000fd5b7f4e487b7100000000000000000000000000000000000000000000000000000000600052602260045260246000fd5b7f4f776e61626c653a2063616c6c6572206973206e6f7420746865206f776e6572600082015250565b7f45524332303a206d696e7420746f20746865207a65726f206164647265737300600082015250565b62000ba38162000a45565b811462000baf57600080fd5b50565b62000bbd8162000a79565b811462000bc957600080fd5b50565b6127e88062000bdc6000396000f3fe608060405234801561001057600080fd5b506004361061014d5760003560e01c806358430550116100c3578063a08489131161007c578063a08489131461038c578063a457c2d7146103a8578063a79854bc146103d8578063a9059cbb14610408578063dd62ed3e14610438578063f2fde38b146104685761014d565b806358430550146102dc57806370a08231146102f8578063715018a614610328578063893d20e8146103325780638da5cb5b1461035057806395d89b411461036e5761014d565b806323b872dd1161011557806323b872dd1461020a578063313ce5671461023a57806339509351146102585780633a4b36641461028857806342fbdf5c146102a45780634cf35103146102c05761014d565b806306fdde0314610152578063095ea7b314610170578063113f56ed146101a057806311c5a8f9146101bc57806318160ddd146101ec575b600080fd5b61015a610484565b6040516101679190611f00565b60405180910390f35b61018a60048036038101906101859190611c29565b610516565b6040516101979190611ee5565b60405180910390f35b6101ba60048036038101906101b59190611b75565b610534565b005b6101d660048036038101906101d19190611b75565b61060b565b6040516101e39190611ee5565b60405180910390f35b6101f4610661565b60405161020191906120c2565b60405180910390f35b610224600480360381019061021f9190611bda565b61066b565b6040516102319190611ee5565b60405180910390f35b61024261076c565b60405161024f91906120dd565b60405180910390f35b610272600480360381019061026d9190611c29565b610783565b60405161027f9190611ee5565b60405180910390f35b6102a2600480360381019061029d9190611c65565b61082f565b005b6102be60048036038101906102b99190611b75565b61095a565b005b6102da60048036038101906102d59190611b75565b610a31565b005b6102f660048036038101906102f19190611c65565b610b08565b005b610312600480360381019061030d9190611b75565b610bdf565b60405161031f91906120c2565b60405180910390f35b610330610c27565b005b61033a610d64565b6040516103479190611eca565b60405180910390f35b610358610d73565b6040516103659190611eca565b60405180910390f35b610376610d9d565b6040516103839190611f00565b60405180910390f35b6103a660048036038101906103a19190611b75565b610e2f565b005b6103c260048036038101906103bd9190611c29565b610f06565b6040516103cf9190611ee5565b60405180910390f35b6103f260048036038101906103ed9190611b75565b610ffa565b6040516103ff9190611ee5565b60405180910390f35b610422600480360381019061041d9190611c29565b611050565b60405161042f9190611ee5565b60405180910390f35b610452600480360381019061044d9190611b9e565b61106e565b60405161045f91906120c2565b60405180910390f35b610482600480360381019061047d9190611b75565b6110f5565b005b606060038054610493906122b1565b80601f01602080910402602001604051908101604052809291908181526020018280546104bf906122b1565b801561050c5780601f106104e15761010080835404028352916020019161050c565b820191906000526020600020905b8154815290600101906020018083116104ef57829003601f168201915b5050505050905090565b600061052a6105236112a1565b84846112a9565b6001905092915050565b61053c6112a1565b73ffffffffffffffffffffffffffffffffffffffff1661055a610d73565b73ffffffffffffffffffffffffffffffffffffffff16146105b0576040517f08c379a00000000000000000000000000000000000000000000000000000000081526004016105a790611fe2565b60405180910390fd5b6000600b60008373ffffffffffffffffffffffffffffffffffffffff1673ffffffffffffffffffffffffffffffffffffffff16815260200190815260200160002060006101000a81548160ff02191690831515021790555050565b6000600c60008373ffffffffffffffffffffffffffffffffffffffff1673ffffffffffffffffffffffffffffffffffffffff16815260200190815260200160002060009054906101000a900460ff169050919050565b6000600254905090565b6000610678848484611474565b6000600160008673ffffffffffffffffffffffffffffffffffffffff1673ffffffffffffffffffffffffffffffffffffffff16815260200190815260200160002060006106c36112a1565b73ffffffffffffffffffffffffffffffffffffffff1673ffffffffffffffffffffffffffffffffffffffff16815260200190815260200160002054905082811015610743576040517f08c379a000000000000000000000000000000000000000000000000000000000815260040161073a90611fc2565b60405180910390fd5b6107608561074f6112a1565b858461075b91906121f5565b6112a9565b60019150509392505050565b6000600560149054906101000a900460ff16905090565b60006108256107906112a1565b84846001600061079e6112a1565b73ffffffffffffffffffffffffffffffffffffffff1673ffffffffffffffffffffffffffffffffffffffff16815260200190815260200160002060008873ffffffffffffffffffffffffffffffffffffffff1673ffffffffffffffffffffffffffffffffffffffff168152602001908152602001600020546108209190612114565b6112a9565b6001905092915050565b6108376112a1565b73ffffffffffffffffffffffffffffffffffffffff16610855610d73565b73ffffffffffffffffffffffffffffffffffffffff16146108ab576040517f08c379a00000000000000000000000000000000000000000000000000000000081526004016108a290611fe2565b60405180910390fd5b6000816108d9600660009054906101000a900473ffffffffffffffffffffffffffffffffffffffff16610bdf565b6108e391906121f5565b905060075481101561092a576040517f08c379a000000000000000000000000000000000000000000000000000000000815260040161092190612082565b60405180910390fd5b610956600660009054906101000a900473ffffffffffffffffffffffffffffffffffffffff16836115f9565b5050565b6109626112a1565b73ffffffffffffffffffffffffffffffffffffffff16610980610d73565b73ffffffffffffffffffffffffffffffffffffffff16146109d6576040517f08c379a00000000000000000000000000000000000000000000000000000000081526004016109cd90611fe2565b60405180910390fd5b6001600c60008373ffffffffffffffffffffffffffffffffffffffff1673ffffffffffffffffffffffffffffffffffffffff16815260200190815260200160002060006101000a81548160ff02191690831515021790555050565b610a396112a1565b73ffffffffffffffffffffffffffffffffffffffff16610a57610d73565b73ffffffffffffffffffffffffffffffffffffffff1614610aad576040517f08c379a0000000000000000000000000000000000000000000000000000000008152600401610aa490611fe2565b60405180910390fd5b6001600b60008373ffffffffffffffffffffffffffffffffffffffff1673ffffffffffffffffffffffffffffffffffffffff16815260200190815260200160002060006101000a81548160ff02191690831515021790555050565b610b106112a1565b73ffffffffffffffffffffffffffffffffffffffff16610b2e610d73565b73ffffffffffffffffffffffffffffffffffffffff1614610b84576040517f08c379a0000000000000000000000000000000000000000000000000000000008152600401610b7b90611fe2565b60405180910390fd5b60008110158015610b96575060c88111155b610bd5576040517f08c379a0000000000000000000000000000000000000000000000000000000008152600401610bcc90612042565b60405180910390fd5b80600a8190555050565b60008060008373ffffffffffffffffffffffffffffffffffffffff1673ffffffffffffffffffffffffffffffffffffffff168152602001908152602001600020549050919050565b610c2f6112a1565b73ffffffffffffffffffffffffffffffffffffffff16610c4d610d73565b73ffffffffffffffffffffffffffffffffffffffff1614610ca3576040517f08c379a0000000000000000000000000000000000000000000000000000000008152600401610c9a90611fe2565b60405180910390fd5b600073ffffffffffffffffffffffffffffffffffffffff16600560009054906101000a900473ffffffffffffffffffffffffffffffffffffffff1673ffffffffffffffffffffffffffffffffffffffff167f8be0079c531659141344cd1fd0a4f28419497f9722a3daafe3b4186f6b6457e060405160405180910390a36000600560006101000a81548173ffffffffffffffffffffffffffffffffffffffff021916908373ffffffffffffffffffffffffffffffffffffffff160217905550565b6000610d6e610d73565b905090565b6000600560009054906101000a900473ffffffffffffffffffffffffffffffffffffffff16905090565b606060048054610dac906122b1565b80601f0160208091040260200160405190810160405280929190818152602001828054610dd8906122b1565b8015610e255780601f10610dfa57610100808354040283529160200191610e25565b820191906000526020600020905b815481529060010190602001808311610e0857829003601f168201915b5050505050905090565b610e376112a1565b73ffffffffffffffffffffffffffffffffffffffff16610e55610d73565b73ffffffffffffffffffffffffffffffffffffffff1614610eab576040517f08c379a0000000000000000000000000000000000000000000000000000000008152600401610ea290611fe2565b60405180910390fd5b6000600c60008373ffffffffffffffffffffffffffffffffffffffff1673ffffffffffffffffffffffffffffffffffffffff16815260200190815260200160002060006101000a81548160ff02191690831515021790555050565b60008060016000610f156112a1565b73ffffffffffffffffffffffffffffffffffffffff1673ffffffffffffffffffffffffffffffffffffffff16815260200190815260200160002060008573ffffffffffffffffffffffffffffffffffffffff1673ffffffffffffffffffffffffffffffffffffffff16815260200190815260200160002054905082811015610fd2576040517f08c379a0000000000000000000000000000000000000000000000000000000008152600401610fc9906120a2565b60405180910390fd5b610fef610fdd6112a1565b858584610fea91906121f5565b6112a9565b600191505092915050565b6000600b60008373ffffffffffffffffffffffffffffffffffffffff1673ffffffffffffffffffffffffffffffffffffffff16815260200190815260200160002060009054906101000a900460ff169050919050565b600061106461105d6112a1565b8484611474565b6001905092915050565b6000600160008473ffffffffffffffffffffffffffffffffffffffff1673ffffffffffffffffffffffffffffffffffffffff16815260200190815260200160002060008373ffffffffffffffffffffffffffffffffffffffff1673ffffffffffffffffffffffffffffffffffffffff16815260200190815260200160002054905092915050565b6110fd6112a1565b73ffffffffffffffffffffffffffffffffffffffff1661111b610d73565b73ffffffffffffffffffffffffffffffffffffffff1614611171576040517f08c379a000000000000000000000000000000000000000000000000000000000815260040161116890611fe2565b60405180910390fd5b600073ffffffffffffffffffffffffffffffffffffffff168173ffffffffffffffffffffffffffffffffffffffff1614156111e1576040517f08c379a00000000000000000000000000000000000000000000000000000000081526004016111d890611f62565b60405180910390fd5b8073ffffffffffffffffffffffffffffffffffffffff16600560009054906101000a900473ffffffffffffffffffffffffffffffffffffffff1673ffffffffffffffffffffffffffffffffffffffff167f8be0079c531659141344cd1fd0a4f28419497f9722a3daafe3b4186f6b6457e060405160405180910390a380600560006101000a81548173ffffffffffffffffffffffffffffffffffffffff021916908373ffffffffffffffffffffffffffffffffffffffff16021790555050565b600033905090565b600073ffffffffffffffffffffffffffffffffffffffff168373ffffffffffffffffffffffffffffffffffffffff161415611319576040517f08c379a000000000000000000000000000000000000000000000000000000000815260040161131090612062565b60405180910390fd5b600073ffffffffffffffffffffffffffffffffffffffff168273ffffffffffffffffffffffffffffffffffffffff161415611389576040517f08c379a000000000000000000000000000000000000000000000000000000000815260040161138090611f82565b60405180910390fd5b80600160008573ffffffffffffffffffffffffffffffffffffffff1673ffffffffffffffffffffffffffffffffffffffff16815260200190815260200160002060008473ffffffffffffffffffffffffffffffffffffffff1673ffffffffffffffffffffffffffffffffffffffff168152602001908152602001600020819055508173ffffffffffffffffffffffffffffffffffffffff168373ffffffffffffffffffffffffffffffffffffffff167f8c5be1e5ebec7d5bd14f71427d1e84f3dd0314c0f7b2291e5b200ac8c7c3b9258360405161146791906120c2565b60405180910390a3505050565b600660009054906101000a900473ffffffffffffffffffffffffffffffffffffffff1673ffffffffffffffffffffffffffffffffffffffff168373ffffffffffffffffffffffffffffffffffffffff161415611529576000816114d685610bdf565b6114e091906121f5565b9050600754811015611527576040517f08c379a000000000000000000000000000000000000000000000000000000000815260040161151e90612082565b60405180910390fd5b505b61153283610ffa565b8061154257506115418261060b565b5b15611557576115528383836117cd565b6115f4565b600061156282611a4c565b905060006064603283611575919061219b565b61157f919061216a565b90506115ae85600860009054906101000a900473ffffffffffffffffffffffffffffffffffffffff16836117cd565b6115db85600960009054906101000a900473ffffffffffffffffffffffffffffffffffffffff16836117cd565b6115f1858584866115ec91906121f5565b6117cd565b50505b505050565b600073ffffffffffffffffffffffffffffffffffffffff168273ffffffffffffffffffffffffffffffffffffffff161415611669576040517f08c379a000000000000000000000000000000000000000000000000000000000815260040161166090612002565b60405180910390fd5b61167582600083611ac0565b60008060008473ffffffffffffffffffffffffffffffffffffffff1673ffffffffffffffffffffffffffffffffffffffff168152602001908152602001600020549050818110156116fb576040517f08c379a00000000000000000000000000000000000000000000000000000000081526004016116f290611f42565b60405180910390fd5b818161170791906121f5565b6000808573ffffffffffffffffffffffffffffffffffffffff1673ffffffffffffffffffffffffffffffffffffffff16815260200190815260200160002081905550816002600082825461175b91906121f5565b92505081905550600073ffffffffffffffffffffffffffffffffffffffff168373ffffffffffffffffffffffffffffffffffffffff167fddf252ad1be2c89b69c2b068fc378daa952ba7f163c4a11628f55a4df523b3ef846040516117c091906120c2565b60405180910390a3505050565b600073ffffffffffffffffffffffffffffffffffffffff168373ffffffffffffffffffffffffffffffffffffffff16141561183d576040517f08c379a000000000000000000000000000000000000000000000000000000000815260040161183490612022565b60405180910390fd5b600073ffffffffffffffffffffffffffffffffffffffff168273ffffffffffffffffffffffffffffffffffffffff1614156118ad576040517f08c379a00000000000000000000000000000000000000000000000000000000081526004016118a490611f22565b60405180910390fd5b6118b8838383611ac0565b60008060008573ffffffffffffffffffffffffffffffffffffffff1673ffffffffffffffffffffffffffffffffffffffff1681526020019081526020016000205490508181101561193e576040517f08c379a000000000000000000000000000000000000000000000000000000000815260040161193590611fa2565b60405180910390fd5b818161194a91906121f5565b6000808673ffffffffffffffffffffffffffffffffffffffff1673ffffffffffffffffffffffffffffffffffffffff16815260200190815260200160002081905550816000808573ffffffffffffffffffffffffffffffffffffffff1673ffffffffffffffffffffffffffffffffffffffff16815260200190815260200160002060008282546119da9190612114565b925050819055508273ffffffffffffffffffffffffffffffffffffffff168473ffffffffffffffffffffffffffffffffffffffff167fddf252ad1be2c89b69c2b068fc378daa952ba7f163c4a11628f55a4df523b3ef84604051611a3e91906120c2565b60405180910390a350505050565b600080611a5883611ac5565b90506000811480611a6b57506000600a54145b15611a7a576000915050611abb565b60006064600a5483611a8c919061219b565b611a96919061216a565b9050600060648286611aa8919061219b565b611ab2919061216a565b90508093505050505b919050565b505050565b6000683635c9adc5dea000008211611ae05760009050611b46565b683635c9adc5dea0000082118015611b02575069021e19e0c9bab24000008211155b15611b105760059050611b46565b69021e19e0c9bab240000082118015611b33575069152d02c7e14af68000008211155b15611b4157600a9050611b46565b600f90505b919050565b600081359050611b5a81612784565b92915050565b600081359050611b6f8161279b565b92915050565b600060208284031215611b8757600080fd5b6000611b9584828501611b4b565b91505092915050565b60008060408385031215611bb157600080fd5b6000611bbf85828601611b4b565b9250506020611bd085828601611b4b565b9150509250929050565b600080600060608486031215611bef57600080fd5b6000611bfd86828701611b4b565b9350506020611c0e86828701611b4b565b9250506040611c1f86828701611b60565b9150509250925092565b60008060408385031215611c3c57600080fd5b6000611c4a85828601611b4b565b9250506020611c5b85828601611b60565b9150509250929050565b600060208284031215611c7757600080fd5b6000611c8584828501611b60565b91505092915050565b611c9781612229565b82525050565b611ca68161223b565b82525050565b6000611cb7826120f8565b611cc18185612103565b9350611cd181856020860161227e565b611cda81612370565b840191505092915050565b6000611cf2602383612103565b9150611cfd82612381565b604082019050919050565b6000611d15602283612103565b9150611d20826123d0565b604082019050919050565b6000611d38602683612103565b9150611d438261241f565b604082019050919050565b6000611d5b602283612103565b9150611d668261246e565b604082019050919050565b6000611d7e602683612103565b9150611d89826124bd565b604082019050919050565b6000611da1602883612103565b9150611dac8261250c565b604082019050919050565b6000611dc4602083612103565b9150611dcf8261255b565b602082019050919050565b6000611de7602183612103565b9150611df282612584565b604082019050919050565b6000611e0a602583612103565b9150611e15826125d3565b604082019050919050565b6000611e2d602b83612103565b9150611e3882612622565b604082019050919050565b6000611e50602483612103565b9150611e5b82612671565b604082019050919050565b6000611e73605383612103565b9150611e7e826126c0565b606082019050919050565b6000611e96602583612103565b9150611ea182612735565b604082019050919050565b611eb581612267565b82525050565b611ec481612271565b82525050565b6000602082019050611edf6000830184611c8e565b92915050565b6000602082019050611efa6000830184611c9d565b92915050565b60006020820190508181036000830152611f1a8184611cac565b905092915050565b60006020820190508181036000830152611f3b81611ce5565b9050919050565b60006020820190508181036000830152611f5b81611d08565b9050919050565b60006020820190508181036000830152611f7b81611d2b565b9050919050565b60006020820190508181036000830152611f9b81611d4e565b9050919050565b60006020820190508181036000830152611fbb81611d71565b9050919050565b60006020820190508181036000830152611fdb81611d94565b9050919050565b60006020820190508181036000830152611ffb81611db7565b9050919050565b6000602082019050818103600083015261201b81611dda565b9050919050565b6000602082019050818103600083015261203b81611dfd565b9050919050565b6000602082019050818103600083015261205b81611e20565b9050919050565b6000602082019050818103600083015261207b81611e43565b9050919050565b6000602082019050818103600083015261209b81611e66565b9050919050565b600060208201905081810360008301526120bb81611e89565b9050919050565b60006020820190506120d76000830184611eac565b92915050565b60006020820190506120f26000830184611ebb565b92915050565b600081519050919050565b600082825260208201905092915050565b600061211f82612267565b915061212a83612267565b9250827fffffffffffffffffffffffffffffffffffffffffffffffffffffffffffffffff0382111561215f5761215e6122e3565b5b828201905092915050565b600061217582612267565b915061218083612267565b9250826121905761218f612312565b5b828204905092915050565b60006121a682612267565b91506121b183612267565b9250817fffffffffffffffffffffffffffffffffffffffffffffffffffffffffffffffff04831182151516156121ea576121e96122e3565b5b828202905092915050565b600061220082612267565b915061220b83612267565b92508282101561221e5761221d6122e3565b5b828203905092915050565b600061223482612247565b9050919050565b60008115159050919050565b600073ffffffffffffffffffffffffffffffffffffffff82169050919050565b6000819050919050565b600060ff82169050919050565b60005b8381101561229c578082015181840152602081019050612281565b838111156122ab576000848401525b50505050565b600060028204905060018216806122c957607f821691505b602082108114156122dd576122dc612341565b5b50919050565b7f4e487b7100000000000000000000000000000000000000000000000000000000600052601160045260246000fd5b7f4e487b7100000000000000000000000000000000000000000000000000000000600052601260045260246000fd5b7f4e487b7100000000000000000000000000000000000000000000000000000000600052602260045260246000fd5b6000601f19601f8301169050919050565b7f45524332303a207472616e7366657220746f20746865207a65726f206164647260008201527f6573730000000000000000000000000000000000000000000000000000000000602082015250565b7f45524332303a206275726e20616d6f756e7420657863656564732062616c616e60008201527f6365000000000000000000000000000000000000000000000000000000000000602082015250565b7f4f776e61626c653a206e6577206f776e657220697320746865207a65726f206160008201527f6464726573730000000000000000000000000000000000000000000000000000602082015250565b7f45524332303a20617070726f766520746f20746865207a65726f20616464726560008201527f7373000000000000000000000000000000000000000000000000000000000000602082015250565b7f45524332303a207472616e7366657220616d6f756e742065786365656473206260008201527f616c616e63650000000000000000000000000000000000000000000000000000602082015250565b7f45524332303a207472616e7366657220616d6f756e742065786365656473206160008201527f6c6c6f77616e6365000000000000000000000000000000000000000000000000602082015250565b7f4f776e61626c653a2063616c6c6572206973206e6f7420746865206f776e6572600082015250565b7f45524332303a206275726e2066726f6d20746865207a65726f2061646472657360008201527f7300000000000000000000000000000000000000000000000000000000000000602082015250565b7f45524332303a207472616e736665722066726f6d20746865207a65726f20616460008201527f6472657373000000000000000000000000000000000000000000000000000000602082015250565b7f546178206d756c7469706c696361746f72206d7573742062652062657477656560008201527f6e203020616e6420313030000000000000000000000000000000000000000000602082015250565b7f45524332303a20617070726f76652066726f6d20746865207a65726f2061646460008201527f7265737300000000000000000000000000000000000000000000000000000000602082015250565b7f54686973207472616e7366657220706173736573207468652074726573686f6c60008201527f64206f662074686520323525206f776e657220746f6b656e732c20746861742060208201527f617265206c6f636b656420666f72657665722e00000000000000000000000000604082015250565b7f45524332303a2064656372656173656420616c6c6f77616e63652062656c6f7760008201527f207a65726f000000000000000000000000000000000000000000000000000000602082015250565b61278d81612229565b811461279857600080fd5b50565b6127a481612267565b81146127af57600080fd5b5056fea2646970667358221220aaf1badced4e60fe51ab2f80df4a385e3e302b04d6db47103e0ed1d2531e647064736f6c63430008010033",
    "linkReferences": {},
    "deployedLinkReferences": {}
}